:1000000000400020250F0000110E000073020000C8
:10001000B9020000BD02000005030000190F000036
:10002000190F0000190F0000190F00004D03000008
:1000300051030000190F0000550300005903000090
:10004000692A000065200000712000007D2000006A
:100050008920000095200000A1200000AD200000B4
:10006000B9200000C52000001D0E00001D21000069
:100070002D210000011F0000A525000075220000B1
:1000800095220000290E0000350E0000410E0000F0
:10009000ED22000001230000A5220000B52200008F
:1000A000C5220000D92200004D0E0000590E0000AC
:1000B000650E0000710E00007D0E0000A917000003
:1000C000D5170000311F0000890E0000950E0000BA
:1000D000A10E0000AD0E0000B90E0000C50E00001C
:1000E0003D210000111F000085220000D10E0000FC
:1000F000190F0000311C0000DD0E0000D1200000AF
:10010000DD200000190F000001150000B1150000EE
:100110002116000009170000B51C0000211F000077
:10012000E90E0000F50E00004D210000010F000057
:100130000D0F00006903000000B583B000F0BEFBA6
:10014000374B384A1360384A1360384B384A03E05B
:1001500052F8041B43F8041B36498B42F8D3314B49
:100160001A68354B9A4200D0FEE72F4B1A68334B82
:100170009A42F9D12A4B324A1360324A1360324B09
:1001800002E0002243F8042B304A9342F9D32C4B6F
:100190001B6813B92B4B1B6803B1FEE700F09AFBF9
:1001A000694601A800F064FB294B2A4A9B1A9B1060
:1001B0001D4600231A4607E0264B144653F822300A
:1001C0009847234601331A469542F5DC224B234AD1
:1001D0009B1A9B101D4600231A4607E01F4B14462E
:1001E00053F822309847234601331A469542F5DCEE
:1001F0000099019803F0A0FC0546194B194A9B1A77
:100200009B101C4606E0631E1A461C46154B53F80D
:1002100022309847002CF6DC284600F005FB00BF92
:10022000BABADECA000000206803002000000020E7
:100230003C9200006C0300207856341232547698B9
:1002400000040020580D0020000400205C0D002058
:1002500028080000280800002808000028080000DE
:10026000280800002808000008B5FFF765FF00BE59
:10027000FEE71EF0040F0CBFEFF30880EFF30980D8
:100280007146364A10472DE9F04182B080460C464F
:10029000074B5E6B9F6B9D6A064800F0F1FA009475
:1002A0003B4632462946404600F018FB00BEFEE7BA
:1002B00000ED00E0745F000000BEFEE71EF0040FDA
:1002C0000CBFEFF30880EFF309807146244A104712
:1002D0002DE9F04182B080460C46084B5E6B9F6B67
:1002E0009D6A074800F0CCFA00943B463246294606
:1002F000404600F0F3FA00BEFEE700BF00ED00E06C
:10030000845F00001EF0040F0CBFEFF30880EFF3D2
:1003100009807146134A10472DE9F04182B08046AA
:100320000C46084B5E6B9F6B9D6A074800F0A8FA6D
:1003300000943B4632462946404600F0CFFA00BEC4
:10034000FEE700BF00ED00E0905F000000BEFEE7AA
:1003500000BEFEE700BEFEE7704700008702000017
:0A036000D102000019030000FEE7BF
:08036C00C04300000100000085
:100800003C920000000000206C03002074030000F4
:100810000000001000000010000400205C0D00200B
:080820000000001000000010B0
:10082800FEE7000008B503460C4A12685AB10B4AA5
:100838001068033323F003030344094A934206D89C
:10084800064A136008BD054A06491160EFE704F03F
:10085800D3F80C2303604FF0FF30F3E704040020C3
:10086800003C00205C0D002001230360014B0B605D
:10087800704700BF040000200FB400B583B004AB7C
:1008880053F8042B01938021074804F0B1FA00289B
:1008980004DC03B05DF804EB04B07047014602487D
:1008A80000F004F8F5E700BF100400204FF0FF3017
:1008B8007047000008B500F04BF9024A024B9A60F5
:1008C80008BD00BF0000000000ED00E008B500F022
:1008D8007BF808BDF8B504460D4616461F4627485E
:1008E800FFF7CAFF21682648FFF7C6FF6168254859
:1008F800FFF7C2FFA1682448FFF7BEFFE16823485D
:10090800FFF7BAFF21692248FFF7B6FF616921485E
:10091800FFF7B2FFA1692048FFF7AEFFE1691F4862
:10092800FFF7AAFF1E48FFF7A7FF29461D48FFF754
:10093800A3FF1D4CE16A1D48FFF79EFF216B1C4871
:10094800FFF79AFFE16B1B48FFF796FF15F0800F42
:100958000AD115F4004F0CD11748FFF78DFF0699FF
:100968001648FFF789FFF8BD31461548FFF784FFA1
:10097800EFE739461348FFF77FFFEDE7585E0000C1
:10098800685E0000785E0000885E0000985E0000E7
:10099800A85E0000B85E0000C85E0000D85E0000D7
:1009A800E85E0000F45E000000ED00E0045F000077
:1009B800145F0000245F0000545F00005C5F0000CB
:1009C800345F0000445F00001A4B1B8803F00303E8
:1009D800022B14D007D873B1012B03D1164B174A39
:1009E8001A6070477047032B04D1154B1A68124BD5
:1009F8001A6070477047104B104A1A6070470D4ACA
:100A08001388938903F03F030C4901FB03F3928990
:100A180002F0C002402A0BD0802A00D19B08054A68
:100A2800928912F4807F00D05B08034A13607047F4
:100A38005B08F4E700800240980400200024F400DA
:100A48009404002008B50A284AD04FF000010A464D
:100A580023D8052852D011D8022852D007D8002808
:100A680053D001283ED14FF4006211463AE00328E2
:100A78004FD0042836D10022F02133E008284CD08A
:100A880006D806284CD007282CD13022F02129E09E
:100A9800092827D15022F02124E0102843D010D86B
:100AA8000D2843D006D80B2843D00C281AD1802211
:100AB800F02117E00E283FD00F2813D1B022F021E3
:100AC80010E013283BD006D811283BD0122809D1B2
:100AD8000122032106E0142804D10322114601E073
:100AE8006022F02172B6194803889BB223EA0103F9
:100AF8001A43028062B6FFF767FF08BD1022F02193
:100B0800F0E700224FF48071ECE702464FF40061F1
:100B1800E8E74FF480721146E4E74022F021E1E76C
:100B28002022F021DEE7C022F021DBE79022F0212D
:100B3800D8E77022F021D5E7A022F021D2E70222DF
:100B48000321CFE700220321CCE700BF0080024049
:100B580008B572B61D4B1E4A9A604FF4E0225A62DD
:100B6800BFF36F8FBFF34F8F62B61A4A4CF6143338
:100B78009381138A9BB243F003031382154B1B8A9C
:100B880013F4007FFAD0144B1A8892B222F00302B1
:100B980092B21A8000221A8041F210029A808822AA
:100BA8009A818F221A824FF4C0729A820120FFF72D
:100BB80049FF084A4CF614339381138A9BB223F0F9
:100BC80008039BB21382FFF7FFFE08BD00ED00E0AB
:100BD80000000000002400400080024070B5044678
:100BE800FFF7F2FE072C17D8022C22D2012C28D8A6
:100BF800194B9B8803F03F03012B25D0164A938895
:100C080003F03F010D46938813F0800F21D08B0825
:100C18001D46124B1E4614E0083CE4B2072C10D8BF
:100C28000F4B1B681E460C4B9B8803F03F031D4669
:100C380007E00B4B1B681E46074B9B88C3F3052335
:100C48001D46B6FBF5F070BD01231D46034B1E463D
:100C5800F7E7024B1E46F4E7008002400087930343
:100C680098040020002204281ED00BD802281DD08A
:100C780004D8E8B101280CD180220AE0032808D161
:100C8800102206E0062816D0072816D0052800D11D
:100C9800042272B699B10D498B8A9BB223EA0203EA
:100CA8008B8262B6002070470822F2E72022F0E724
:100CB8004FF48072EDE70222EBE70122E9E70349EE
:100CC8008B8A9BB213438B82EBE700BF0080024004
:100CD80008B54FF0000C6246072813D8022819D22D
:100CE800012802D8CA014FF0800C72B60B498B88D4
:100CF8009BB223EA0C031A438A8062B6FFF764FEAC
:100D0800002008BD0838C0B20728EED80A464FF0C0
:100D18003F0CEAE70A024FF47C5CE6E700800240F9
:100D280010B5144649B10A460023022808D841B232
:100D380059BB00284AD08E4608E00223244AF4E72B
:100D4800032825D143F004034FF0000E72B6DFF8F4
:100D580084C044F65901ACF804104FF27B21ACF87A
:100D68000410BCF8001089B221F003010843ACF864
:100D7800000019490869034323EA0E030B61EFF3E6
:100D88001181630183F3118811E04FF0040EDDE750
:100D98004FF0000EDAE7114BB3F8983003F00E036A
:100DA800002BF8D1BFF34F8F30BF62B672B61378FD
:100DB800002BF0D00023137081F31188064A1369C1
:100DC80023F002031361BFF34F8F62B6002010BDFA
:100DD800900400200024004000ED00E000250040C1
:100DE800034610B101221A70704772B6044A13699B
:100DF80023F002031361BFF34F8F62B6014BF1E793
:100E080000ED00E090040020684620F007018D46C0
:100E180001B4FEE7684620F007018D4601B4FEE7FD
:100E2800684620F007018D4601B4FEE7684620F0C9
:100E380007018D4601B4FEE7684620F007018D469C
:100E480001B4FEE7684620F007018D4601B4FEE7CD
:100E5800684620F007018D4601B4FEE7684620F099
:100E680007018D4601B4FEE7684620F007018D466C
:100E780001B4FEE7684620F007018D4601B4FEE79D
:100E8800684620F007018D4601B4FEE7684620F069
:100E980007018D4601B4FEE7684620F007018D463C
:100EA80001B4FEE7684620F007018D4601B4FEE76D
:100EB800684620F007018D4601B4FEE7684620F039
:100EC80007018D4601B4FEE7684620F007018D460C
:100ED80001B4FEE7684620F007018D4601B4FEE73D
:100EE800684620F007018D4601B4FEE7684620F009
:100EF80007018D4601B4FEE7684620F007018D46DC
:100F080001B4FEE7684620F007018D4601B4FEE70C
:100F1800684620F007018D4601B4FEE7684620F0D8
:100F280007018D4689B500AF0A4B1B6883F3088813
:100F3800094A44F6590393804FF27B239380138820
:100F48006FEA43436FEA53439BB2138002F0F0FD0C
:100F5800FEE700BF000000000024004072B643789E
:100F680053B14FF4006242F00802C1688B68134322
:100F78008B6062B6002070471A46F4E772B6437871
:100F880053B14FF4805242F01002C1688B6813438A
:100F98008B6062B6002070471A46F4E7002204E02E
:100FA8005B00037049000132D2B21F2A0CD80378C3
:100FB80083EA116C1CF0800FF2D05B00DBB2037087
:100FC80083F007030370EDE7704770B582B00646FB
:100FD8000D4601238DF80730002406E056F824104A
:100FE8000DF10700FFF7DAFF0134AC42F6D39DF8A4
:100FF800070002B070BD10B58446426C836C0B20AC
:1010080010700021517002249470DCF80CE00EF18D
:10101800700EC2F80CE01474032454749174D174E3
:101028004FF0010E82F814E00C221A70597083F800
:1010380002E0DCF80C206C329A6083F811E01C7432
:101048009974D97483F814E000F04EFE10B141F29F
:101058000B5010BD01460C2000F046FE0028F8D0C9
:1010680041F20B50F5E7000072B6064BD0F80CC001
:10107800CCF800310A60C3680020C3F8000162B6EA
:10108800704700BFAFA587DE72B60B68136062B603
:101098000020704710B50446406C51B18160426031
:1010A80000F07EFE034660B9002284F84C20184602
:1010B80010BD00F0F7FE03460028F5D041F20B53AF
:1010C800F2E741F20B53EFE738B50446806C79B18B
:1010D8001546C160426000F063FE034608B141F264
:1010E8000B53A4F85450002284F84D20184638BDFC
:1010F80000F0D8FE03460028F5D041F20B53F2E782
:10110800C3790B7000207047437823B190F84D30B5
:1011180013B1012300E001230B700020704772B661
:10112800C268536843F00103536062B600207047F9
:10113800C3685B6813F0010F13D172B6C268936875
:1011480023F4006323F00803936062B672B6C268A2
:10115800936823F4805323F01003936062B6002051
:10116800704741F20F507047C268536823F001037B
:10117800536072B6C268936823F4805323F0100357
:10118800936062B6C268136823F4F03323F4807363
:1011980013600020704738B504460D46037A53B9EA
:1011A8000878E3681A6E82420CD15A6E6B889A42AC
:1011B8000BD1002038BD084650F8041B090CFFF776
:1011C80004FFEEE741F21050F4E741F21050F1E766
:1011D80001720020704701610020704703690B60AD
:1011E8000020704741610020704743690B60002070
:1011F8007047000070B50646002505601E4C4FF488
:101208007A73236141F64C5363611C4BE3600121FF
:101218000846FFF727FD1A4B4FF480225A604FF417
:1012280000225A604FF480125A604FF400125A603C
:10123800144B6364144BA3644FF48063A4F85830D0
:101248004FF00003A4F85A50A4F856502565A4F8A6
:1012580054502372A37001226272E56125626562AF
:10126800E5626563E56323762046FFF7C4FE10B99F
:1012780001222270346070BDA404002000000840E0
:1012880000E100E01C0500200405002000200329DF
:101298000ED007D801291ED002290CD13320DFF83F
:1012A80068C008E0042906D13520DFF860C002E0F4
:1012B8003420DFF85CC093B1DCF800301343CCF87D
:1012C800003000F01702400901239340114A42F808
:1012D8002030002070473220DFF83CC0EBE7DCF814
:1012E800003023EA0203CCF80030DCF80030002B91
:1012F800EFD100F017024009012393402030054A3E
:1013080042F82030E5E700BF900008409800084008
:101318009400084000E100E08C000840032913D045
:1013280007D801290BD002290CD1094BC3F8A420F6
:1013380008E0042906D1064BC3F8AC2002E0044BB0
:10134800C3F8A02000207047014BC3F8A820F9E794
:101358000000084070B504460E46002B42D01146E6
:101368001D46012343702265B0F85820AA422ED3A7
:101378002A46FFF7A9FE0023A4F856301C4B012289
:101388005A60314651F8042B120C2046FFF782FEB2
:10139800174B4FF000421A600025A571E571A58032
:1013A800E3685D662046FFF7D9FD2046FFF7E6FDB6
:1013B80072B6892203212046FFF7B0FF0123892254
:1013C80003212046FFF762FF62B6284670BDFFF78B
:1013D8007BFEB4F85830EB1AA4F856300023A4F872
:1013E8005C30CBE74370012380F84D30C9E700BF7C
:1013F80000E100E070B582B004460E46FFF7AAFF90
:10140800C0B90123A370A3791BB9A3889BB2002B91
:10141800F9D0A3889BB293B90223A3700023237643
:101428002046FFF77CFE054690B90323A370637A34
:101438005BB137E005462046FFF796FE05E02046FB
:10144800FFF792FEA08883B21D46284602B070BD01
:101458002046FFF789FEF8E70DF107012046FFF760
:101468004FFE034634E062B60423A370A3889BB200
:10147800002B35D12046FFF75BFE0546002836D104
:10148800A07031462046FFF786FE0546DDE762B6C6
:10149800002BE9D19DF80730002BE5D1A3889BB23A
:1014A800002BE1D1002204F118010120FFF738FCDC
:1014B80072B600238DF807300DF107012046FFF7BB
:1014C80023FE03460028E2D19DF80720002AC3D155
:1014D800002BC8D19DF80720002AD8D12276D6E75C
:1014E8002046FFF741FEA3889BB21D46ADE7204684
:1014F800FFF73AFEA9E7000070B52A4BDA68D2F880
:10150800A030D2F88C2013F0010401D002F00104BD
:1015180013F0020F04D012F0020F01D044F00204BD
:1015280013F0040F04D012F0040F01D044F00404A7
:1015380013F0080F04D012F0080F01D044F008048B
:1015480013F0100503D012F0100500D0102513F089
:10155800200F04D012F0200F01D045F0200513F021
:10156800400F04D012F0400F01D045F040050D4B5C
:101578005E6A4EB144EA05030A4A926A134203D0EE
:10158800002211460748B047064E00232A4601218B
:101598003046FFF77BFE224601213046FFF7BEFEAC
:1015A80070BD00BFA404002010B51A4BDA68D2F849
:1015B800A430D2F8902013F0010401D002F0010405
:1015C80013F0020F04D012F0020F01D044F002040D
:1015D80013F0040F04D012F0040F01D044F00404F7
:1015E80013F0080F04D012F0080F01D044F00804DB
:1015F800084BDB6A3BB1074A126B224203D0002238
:10160800114604489847224602210248FFF786FE01
:1016180010BD00BFA404002070B5374BDA68D2F8BB
:10162800A830D2F8942013F0010405D012F0010478
:1016380002D031490120C87113F0020F04D012F012
:10164800020F01D044F0020413F0040F04D012F08A
:10165800040F01D044F0040413F0080506D012F07A
:10166800080503D0244901208871082513F0100FBC
:1016780004D012F0100F01D045F0100513F0200F20
:1016880004D012F0200F01D045F0200513F0400FD0
:1016980008D012F0400F05D044F04004164941F23A
:1016A8000850888013F0800F08D012F0800F05D002
:1016B80044F08004104B41F207529A800F4E304696
:1016C800FFF78EFBF36953B144EA0501A6F118024E
:1016D800926B114203D00022A6F118009847064EDB
:1016E80000232A4603213046FFF7D0FD2246032176
:1016F8003046FFF713FE70BDA4040020BC04002090
:1017080070B5264BDA68D2F8AC30D2F8982013F0CE
:10171800010401D002F0010413F0020F04D012F00A
:10172800020F01D044F0020413F0040F04D012F0A9
:10173800040F01D044F0040413F0080507D012F098
:10174800080504D0154941F20A508880082513F08D
:10175800100F08D012F0100F05D045F010050F4BF0
:1017680041F209529A800D4BDE6B4EB145EA0403F3
:101778000A4A126C134203D0002211460748B047A8
:10178800064E0023224604213046FFF77FFD2A46F5
:1017980004213046FFF7C2FD70BD00BFA40400203D
:1017A80008B5084B4FF00042C3F88020064B0122D1
:1017B80083F84C209A71DB691BB10022114602485C
:1017C800984708BD00E100E0A404002070B5344B40
:1017D800B3F854201646B3F85620002A4BD0B3F875
:1017E8005C3063B32E4B196DB3F8583001EB4300EE
:1017F80005462C4801609A421BD8294B0021A3F8C2
:101808005610274B0021A3F85C10264B1968244872
:10181800FFF75AFC244B01221A70244C2046FFF78C
:10182800DFFAA36823B12A463146A4F11800984785
:1018380070BDD21A1A49A1F856201A46E1E7184B8A
:10184800196D08460D46B3F8581000EB41011548CC
:101858000160B3F85A309A4207D811490020A1F81C
:1018680056000F49A1F85C30CFE7D21A0C49A1F80D
:1018780056201A46F5E70C4B1B786BB1094B1B68D1
:101888001D4601230A4AC2F88430054A82F84D30C1
:10189800054B00221A70C0E7014B1B6D1D46F0E78F
:1018A800A4040020A00400209C040020BC04002004
:1018B80000E100E008B500231A460249FFF79AFD47
:1018C80008BD00BFD069000030B583B005460223CB
:1018D80001AA1349FFF78EFD08B103B030BDBDF86A
:1018E8000630BDF804209B1A4FF0804191FBF3F1BC
:1018F80001314C080B4901FB03F31B130133920020
:10190800C2EB630202F5003207492846FFF7ACFB39
:101918000028E2D1224605492846FFF7A5FBDCE767
:1019280090690000C7B1FFFF1C010840180108407A
:1019380030B583B0044603236A461549FFF75AFDBC
:101948000346C0B9BDF80430BDF802209B1A114AFD
:1019580092FBF3F212F0010F10D05208531C1D46EF
:10196800BDF80020C2F5004292000B492046FFF75F
:101978007BFB034628B1184603B030BD53081D460B
:10198800EEE72A4605492046FFF76EFB0346F2E7D5
:101998003869000000805525100108400C010840F6
:1019A80008B500231A460249FFF724FD08BD00BF09
:1019B8002869000070B582B004464FF420621C49C3
:1019C800FFF752FB00231A461A492046FFF712FD7B
:1019D800064610B1304602B070BD174BD3F88050A0
:1019E800ADF804504FF4C06211492046FFF73CFBA4
:1019F80000231A4611492046FFF7FCFC064600283A
:101A0800E8D10D4BD3F88000ADF80600A9B2C1F5B6
:101A1800004303EB4302D20280B2401A92FBF0F279
:101A2800A2F6FF32521002492046FFF71DFBD1E70C
:101A3800240108405C68000000000840406800007D
:101A480030B583B004460D4601A9FFF7C7FB08B1BE
:101A580003B030BD69462046FFF7C7FB0028F7D121
:101A6800019B4FF4D86202FB03F35B00009AB3FBBF
:101A7800F2F301335B0803F500632B60E8E700002D
:101A88002DE9F0418CB0044602A9FFF7A7FB0546F3
:101A980018B128460CB0BDE8F08101A92046FFF72F
:101AA800A4FB05460028F4D169462046FFF7C8FF85
:101AB80005460028EDD14FF480424C492046FFF7F7
:101AC800D3FA00224A492046FFF7CEFA002308E05D
:101AD800484A52F823100CAA02EB830242F8241C4D
:101AE8000133082BF4D9009B03F12A430593012104
:101AF8002046FFF76DFB00231A4603A92046FFF78F
:101B080079FC054600212046FFF762FB002D41D0F5
:101B1800002DBED1384BD3F88030A3F500431F46C3
:101B280000231A4635492046FFF764FC054600287D
:101B3800AFD1314BD3F88020C2F50042B303B3FBD9
:101B4800F8F303EB82022A492046FFF78DFA0023B7
:101B58001A462B492046FFF74DFC0546002898D128
:101B6800254BD3F88010C1F50041019B9B03029AD5
:101B7800B3FBF2F33A4603FB02F292FBF1F243465F
:101B880003FB02F202F50052920B18492046FFF7B8
:101B98006BFA7EE7184BD3F88030C3F500439B00FF
:101BA8001E461A4612492046FFF75EFA00231A46D7
:101BB80014492046FFF71EFC054600287FF469AF4C
:101BC8000D4BD3F88030A3F500430F4AB2FBF3F373
:101BD80098461A4605492046FFF746FA00231A4652
:101BE8000A492046FFF706FC054691E7040108402C
:101BF800080108400469000000000840A0680000CF
:101C080084680000E46800000080AA12C46800002C
:101C180072B6426893889BB201F47C410B4393806F
:101C280062B600207047000010B500241E4B1B78D8
:101C3800002B31D01C4BDB6873B372B61A4B5B6850
:101C48009A881B889BB2134003F47C4262B612F454
:101C5800004F26D113F4804F01D044F4804413F48C
:101C6800005F01D044F4005413F4805F01D044F4C1
:101C7800805413F4006F01D044F4006413F4806FAF
:101C880001D044F48064084B1B8A234204D00648E0
:101C9800C36800222146984721460348FFF7B8FF4A
:101CA80010BD4FF40044D5E73405002008B50D4BAE
:101CB80001221A725A68516B1B785BB1CAB2094B80
:101CC800DB683BB10748007C104203D00022C9B250
:101CD80004489847034B5B681A6B5A63BFF34F8FEE
:101CE80008BD00BF4805002010B50C460121814001
:101CF80072B6284A536843F00103536062B6264B14
:101D08001B78002B35D0002C35D0012C39D172B678
:101D1800204A936B0B43936362B632E04FEA0C1E82
:101D28001E4A02EB0C10002342F80E304360836019
:101D380002F580720EEB020042F80E3043608360B9
:101D48000CF1010CBCF10F0FE8DD124B134A9A603D
:101D580000221A625A629A62DA621A635A639A63B2
:101D68004FF6FF72DA63FF22DA640B4B01221A7016
:101D7800C9E79C46E6E772B6064AD36B0B43D363C2
:101D880062B672B6044A53680B43536062B60020C9
:101D980010BD00BF000001405C05002000060020C7
:101DA8004378CBB903783B4A02EB0312836813608C
:101DB800C368536072B6037C022B12D9191FC9B2CB
:101DC800022915D8D2F800C041680139043B99406E
:101DD800ACEB010111600BE003782F4A02EB031210
:101DE800E4E7D2F800C041680139994061441160C4
:101DF800437C022B0DD9191FC9B2022910D8D2F879
:101E080004C041680139043B9940ACEB01015160C1
:101E180006E0D2F804C04168013999406144516034
:101E280062B6417C037C9B0643EA8173817843EA6E
:101E38000163C17C43EA81334168013943EA0113F4
:101E4800017D0B439360027801239340027C032AAF
:101E580013D9124AC2F81038427C032A11D90F4A02
:101E6800C2F818380E4A92681A420ED00B4AC2F8C5
:101E780000380A4A936200207047084AC2F81438AA
:101E8800EAE7064AC2F81C38ECE7044AC2F8043804
:101E9800EFE700BF00060020000700200000014017
:101EA8005C05002000B503780C4A02EB03120121FF
:101EB800994072B6936823F47F5C2CF03F0C43681A
:101EC80003F1FF3E037D43EA0E1343EA0C039360DC
:101ED80062B6034B9962002000BD00BF00060020D7
:101EE8000000014008B543681B889BB283611C3021
:101EF800FEF776FF08BD000008B50248FFF7F2FFBD
:101F080008BD00BF0C00002008B50248FFF7EAFF33
:101F180008BD00BF2C00002008B50248FFF7E2FF0B
:101F280008BD00BF4C00002008B50248FEF758FF66
:101F380008BD00BF68000020084B1A68511C1960D2
:101F480042B100207047054B03EBC20300215960E2
:101F5800996001320A2AF6DDF3E700BF0008002085
:101F68000138012383409BB2014A13860020704741
:101F78000024004072B632B183889BB20B43838041
:101F880062B60020704783889BB2C94309B20B40F0
:101F98008380F5E772B632B183899BB20B438381A4
:101FA80062B60020704783899BB2C94309B20B40CF
:101FB8008381F5E772B632B103899BB20B43038183
:101FC80062B60020704703899BB2C94309B20B402F
:101FD8000381F5E701830020704781830020704763
:101FE80030B587B086460C460DF1040C194D0FCD5F
:101FF800ACE80F002B68CCF80030174B03EBCE038E
:102008005D6835B1144B03EBCE0300222146986876
:10201800A847A4F12F03012B17D8002203E0038D52
:102028009BB20BE00132042A12D806AB03EB820301
:1020380053F8140C2F2CF2D0838D9BB2B0F830C01B
:1020480013EA0C03EED00386ECE72046FFF788FF7F
:1020580007B030BDF46900000008002008B5012170
:102068000020FFF7BDFF08BD08B502210120FFF7DA
:10207800B7FF08BD08B503210220FFF7B1FF08BD6F
:1020880008B504210320FFF7ABFF08BD08B50521FB
:102098000420FFF7A5FF08BD08B506210520FFF7B6
:1020A8009FFF08BD08B507210620FFF799FF08BD67
:1020B80008B508210720FFF793FF08BD08B50921D7
:1020C8000820FFF78DFF08BD08B52F210920FFF76D
:1020D80087FF08BD08B530210A20FFF781FF08BD3A
:1020E80038B5C3689D8B01229A81436883B1044641
:1020F800ADB215F0010F03D0002201218068984786
:1021080015F0020F04D0636800220221A0689847E6
:1021180038BD000008B50248FFF7E2FF08BD00BF60
:102128005C08002008B50248FFF7DAFF08BD00BFC9
:102138006C08002008B50248FFF7D2FF08BD00BFB1
:102148007C080020104B1B78E3B10F4BDB68CBB148
:1021580010B572B60C4B5B681B8903F0010362B6BD
:102168006BB91C46084B1B692146234203D006481D
:10217800C36800229847044B5B681C8110BD01238B
:102188001C46EFE7704700BF8C080020827CA2B98C
:1021980008B50346C0681B8A012907D01946FFF70E
:1021A80019FF003818BF012048B908BD1946FFF7C4
:1021B80014FF003818BF0120F6E70020704740F6EA
:1021C8000540F2E710B5044643681988C1F3420296
:1021D800C2F1040292B2C1F3022100E01A46531E72
:1021E8009BB282B1626A002AF8D0A069626800785E
:1021F8001081A26994F820000244A261626A013A3F
:102208006262EBE719464B1E9BB279B1A26A002ABB
:10221800F8D062689188E2691170E26994F8211037
:102228000A44E261A26A013AA262EBE7A36A83B9AF
:10223800636A73B9012384F82C302378022B0BD0FE
:10224800637A012B0CD0236C1BB100221146606C01
:10225800984763681B8810BD2046FFF797FFEFE794
:1022680004F11500FEF7BCFDEDE7000008B50248D3
:10227800FFF7A8FF08BD00BFA008002008B5024866
:10228800FFF7A0FF08BD00BFF408002008B502480A
:10229800FFF798FF08BD00BF4809002008B5024BAA
:1022A800DB6B0220984708BDA008002008B5024B48
:1022B800DB6B0320984708BDA008002008B5034B36
:1022C800D3F890300420984708BD00BFA00800202C
:1022D80008B5034BD3F890300520984708BD00BFD8
:1022E800A008002008B5034BD3F8E4300020984735
:1022F80008BD00BFA008002008B5034BD3F8E430A0
:102308000120984708BD00BFA008002001F00E0179
:10231800C17270472DE9F04104460E469046837A13
:10232800002B41D0878B438BFF1A3FB23946974227
:10233800A8BF1146002308E06069628B551C6583BD
:10234800825C06F8012B01331BB28B42F4DB474554
:1023580010DAA8EB010212B20023638308E0606977
:10236800618B4D1C6583415C06F8011B01331BB270
:102378009342F4DB94F9003003F01F005B0901225B
:1023880002FA00F01849203341F82300E38B9BB28E
:10239800A3EB08039BB2E38394F9003003F01F001A
:1023A8005B09824041F82320A37AD3B10020BDE81D
:1023B800F08115F0010F0BD163689B8A9DB2D9B2E9
:1023C80003F00E03002BF4D02046FFF79FFFF0E741
:1023D80063681B8806F8013B01373FB24745EBDBD2
:1023E800E4E71F46FAE700BF00E100E070B5837A32
:1023F800002B53D0038D848C1B1B1BB21E469E469C
:102408009342A8BF964600230BE0B0F824C00CF115
:102418000104848411F8014B056A05F80C40013366
:102428001BB27345F1DB964214DAA2EB0E0C0FFADD
:102438008CFC002383840BE0848C04F1010EA0F84B
:1024480024E011F801EB056A05F804E001331BB23A
:102458006345F1DB90F9003003F01F0E5B0901249E
:1024680004FA0EFEDFF860C020334CF823E0438DF9
:102478009BB29B1A9BB24385D0F804E0BEF80430A7
:102488009BB243F00203AEF8043090F9003003F039
:102498001F0E5B0904FA0EF44CF82340837A83B1CB
:1024A800002070BD4368B3F814C01CF0200FF9D0A9
:1024B80011F801CBA3F800C00EF1010E7245F1DC52
:1024C800EEE79E46FAE700BF00E100E090F9003031
:1024D80003F01F015B09012202FA01F1DFF828C0AD
:1024E80020334CF82310002343830383C383C3841E
:1024F8008384038D438590F9003003F01F015B0945
:102508008A404CF82320704700E100E0F8B5044603
:1025180015461A461F46837A5BB35AB100F1140672
:10252800237AC3B13289B5F900309A420BDA40F602
:10253800085012E000F12006F2E7002204F1110130
:102548000120FEF7EDFB728992B2B5F900309A428C
:10255800F3DB002001E04FF45060237A5BB9728905
:1025680012B2B5F900309342A8BF13462B80002061
:1025780001E04FF45060A37A53B9237A03B10020E5
:1025880033B937B163689B8A03F001032B800020BD
:10259800F8BD63689B8AC3F34013F7E708B52E4B71
:1025A80059680A8912F0010F0BD193B203F00603A0
:1025B800042B11D0062B05D0022B2BD02748FEF771
:1025C8000FFC08BD8B8AD9B203F00E03002BF5D09F
:1025D8002148FFF79BFEF1E71F4AD38B9BB2928BF2
:1025E800934212D01C4B1B8B9A420FD008881A4A70
:1025F8005169138B03F1010CA2F818C0C854D38B8E
:102608009BB201339BB2D383D8E7FEE7124B00227B
:102618001A83EBE7104BD88C1A8D904201D3002017
:10262800D8840D4B5B8D9BB29A420ED90A4A106A28
:10263800D38C03F1010CA2F826C0C35C0B80538D28
:102648009BB201339BB25385B8E78B889BB223F0CA
:1026580002039BB28B80B1E76C0000207D00002054
:1026680070B504460D4616460023FFF74FFF00B12C
:1026780070BDB6F9002029462046FFF7B7FEF7E7F8
:1026880070B504460D4616460123FFF73FFF00B11B
:1026980070BDB6F9002029462046FFF73BFEF7E754
:1026A80008B543689A8A12F0010F00D01A8893F887
:1026B800302012F0010F03D19A8A12F0400FF6D0A1
:1026C800FFF704FF002008BD30B5A1B004460D4651
:1026D8007E221B49684602F05FFA0420FEF77EFA64
:1026E800184B98420CD0184B98421FD0174B984261
:1026F80023D105EB4501490054316A460A4403E0F9
:1027080005EB45010DEB4102636811881985B2F9A3
:102718000430528843EAC22362686FEA43436FEA8F
:1027280053439BB29384002021B030BD05EB450391
:102738005B002A336A461A44E6E740F60450F3E79A
:10274800086A00000024F40040420F00002D310107
:102758002DE9F8430546884600230B602C231E4FBD
:1027680003FB007762B1114600227A740A687A6125
:102778008A88BA838A683A62CA883A850122BA7214
:102788003846FFF7A3FEDFF850902C2303FB05F52E
:1027980009EB050401266670217C3846FFF794FF93
:1027A8006368A2899A816368E2891A82C8F800700E
:1027B80031460320FEF756FA636883F8306019F94A
:1027C800053003F01F025B099640044A42F8236073
:1027D8000020BDE8F88300BF6C00002000E100E0A5
:1027E80001290BD0022918D0F9B9426893899BB204
:1027F80023F038039BB29381084670474268938957
:102808009BB223F030039BB29381426893899BB2B9
:1028180043F00803938100207047426893899BB274
:1028280043F0380393810020704740F60450704706
:1028380003290BD8426893899BB223F003039BB208
:102848009381426893899BB2194391810020704714
:1028580008B559B1426892F8303003F0FE0382F8A7
:1028680030300320FEF7FEF9002008BD426892F8D8
:10287800303043F0010382F83030F2E7817269B1F9
:10288800426893889BB243F001039380426893881F
:102898009BB243F0040393800020704742689388FA
:1028A8009BB223F001039BB29380EFE701720020F3
:1028B800704770B505460C460978FFF705FF0646D0
:1028C80008B1304670BDA1782846FFF7B1FF06462B
:1028D8000028F6D161782846FFF782FF06460028CF
:1028E800EFD1E1782846FFF7E1FF06460028E8D156
:1028F80021792846FFF7C2FFE3E70000024690F976
:10290800013003F01F005B09012181402033034897
:1029180040F82310002050701070704700E100E06C
:1029280083789BB1134BB3F8983003F00E03002B58
:10293800F8D172B6A1B10F4AB2F888309BB243F011
:102948006003A2F8883062B600207047094BB3F8DC
:10295800983003F00E03002BEBD040F608107047B8
:10296800044AB2F888309BB223F020039BB2A2F845
:102978008830E8E70025004083786BB10B4BB3F84B
:10298800983003F00E03002BF8D1084B4CF6CC42DC
:10299800A3F88C2000207047044BB3F8983003F05C
:1029A8000E03002BF1D040F60810704700250040B8
:1029B80010B5034600EB4002DFF888C002EB0C00BC
:1029C8004FF0000EC1F800E04FF0010484700CF8DD
:1029D80002E01D4AB2F8982012F0100F17D11A4AD7
:1029E800B2F8882012F0200F11D1184A03EB430CDB
:1029F80002EB4C0E32F81CC0134AA2F880C0BEF895
:102A080002C0A2F888C04FF0000CA2F890C00D4A8E
:102A180003EB430302EB030C4FF00A0E8CF801E0C2
:102A2800DFF82CC04FF4806ECCF800E04FF0010CBA
:102A380002F803C00860FFF79FFF00B910BD40F619
:102A48000510FBE79C09002000250040886A00006B
:102A580000E100E001F01F0143681986002070477B
:102A680010B50B4A51688B8D03F01F03098D0B407D
:102A7800147C1C40137833B1D36823B11CB10022F5
:102A880021460348984721460148FFF7E3FF10BD58
:102A9800A009002010B5B0F9002092B2B0F902C028
:102AA8001FFA8CFCB0F9041089B2B0F9060080B2A4
:102AB800194B33F81C30194C34F81040DFF860E03B
:102AC8003EF812E023434EEA030E164BA3F858E0F3
:102AD800154C34F81CC0154C34F810E0144830F884
:102AE80012004CEA0E0C40EA0C00A3F85C001148F6
:102AF80030F81100A3F898000F4830F81110A3F827
:102B08009C100E4931F81210A3F8D8100C4931F86E
:102B18001220A3F8DC2010BD640C0020E40B002078
:102B2800640B002000000240240C0020A40B0020AD
:102B3800240B0020640A0020240A0020E40A002054
:102B4800A40A002000231F2B00F3A28030B59AE0CE
:102B58004FF0010E0EFA01F1084380B20132042A47
:102B68000FDCC2F1040143FA01FE1EF0010FEFD0A1
:102B78004FF0010E0EFA01F14CEA010C1FFA8CFC21
:102B8800ECE7444A22F813C0434A22F81300002213
:102B98001046944605E0012101FA0EF1084380B27F
:102BA8000132042A10DCC2F10A0EC2F1040143FA10
:102BB80001F111F0010FEED0012101FA0EF14CEAFA
:102BC800010C1FFA8CFCEBE7344A22F813C0344A94
:102BD80022F8130013F0100F08D04FF0000E4FF436
:102BE800005401224FF0000C65460AE04FF4005EE5
:102BF8000024F6E7012181404CEA01011FFA81FC1B
:102C08000132042A0DDCC2F11000C2F1040143FABA
:102C180001F111F0010FEDD00121814029438DB25E
:102C2800EEE7204A22F813501F4A22F813C01F4A21
:102C380022F813401E4A22F813E000221046944658
:102C480005E0012101FA0EF1084380B20132042A9D
:102C580010DC02F1070EC2F1040143FA01F111F090
:102C6800010FEED0012101FA0EF14CEA010C1FFA16
:102C78008CFCEBE70F4A22F813C00F4A22F8130026
:102C880001331F2B03DC00221046944667E730BD52
:102C9800704700BF640C0020240C0020E40B0020C7
:102CA800A40B0020640B0020240B0020E40A002061
:102CB800A40A0020640A0020240A002008B58446DB
:102CC80008461146002301E001335BB2012B12DCF8
:102CD8003CF91320002AF7D14FEA830E0EF1020EB9
:102CE8003CF90E20002AEFDCEEDB00222CF8132042
:102CF8002CF80E20E8E7002305E03CF913E020F863
:102D080013E001335BB2032BF7DD042202F0F2FC7F
:102D180008BD09B308B50B464FEAE07EA0FB02C127
:102D280002FB0E1149011A46DB174FEA4C1041EA23
:102D3800DC6101F08FFC013041F10001400840EAFC
:102D4800C17049104FF0FF3383424FF000038B41AD
:102D580001D26FF0004008BD08467047A1B308B51E
:102D68000A46C1174FEA411E4EEAD06E4FEA401C90
:102D7800BCEB000C6EEB010E4FEA8E0E4EEA9C7E09
:102D88004FEA8C0C1CEB000041EB0E014FEAC10C22
:102D98004CEA507CC1004FEA4C1CD31700024CEAA5
:102DA800D16101F057FC013041F10001400840EACF
:102DB800C17049104FF0FF3383424FF000038B413D
:102DC80001D26FF0004008BD0846704708B50029D9
:102DD8002CDAC1F3030CCCF1000C5FFA8CF300225F
:102DE8006CF3030241F31B1C6CF31F1211F00F0F5D
:102DF80005D02CF0704C0CF1010C6CF31F120F2A4B
:102E080009D803F00F0340F2712203FB02F20D49C7
:102E180001F040FF14E003F00F0340F2712101FBC1
:102E280003F31211084901F035FF09E001F00F031F
:102E380040F2712202FB03F30A11034901F02AFF51
:102E480008BD00BFA05F0000A85F000010B582B0F9
:102E5800044601F099FFADF806000DF1060221467F
:102E6800024B1868FFF7FCFB02B010BDB809002040
:102E780010B586B01D4B03930223ADF810301C4BE0
:102E880005936423ADF8123003AA1A490020FFF70E
:102E98005FFCF8B904238DF8003001238DF8033066
:102EA8008DF8043000238DF8013003228DF80220BC
:102EB8008DF8053069460F4B1868FFF7FAFC68B9BA
:102EC80001210C4B1868FFF7C3FC044650B9204693
:102ED80006B010BD084800F02BFFDBE7074800F0FC
:102EE80027FFEDE7064800F023FFF0E7200A00205F
:102EF800BC090020B8090020B05F0000C85F0000CE
:102F0800F05F00002DE9F047F0B00746884600243E
:102F18002CE03C4B03EBC40253F83450516889064B
:102F2800394A0023A80641EA951101F0E3FB01F0B4
:102F38003BFB0022354B01F0B7F901F06BFB05466E
:102F4800334B53F82420334901A801F0A3FE45F080
:102F58001845314BDD60314A1A6101213846FEF7C8
:102F680037F90025002D06DD013464B20E2CD0DDC2
:102F780070B0BDE8F08704236EAA41463846FEF7D4
:102F880039FA00283AD168AE32466CA96EA8FFF724
:102F980095FE022266A9304602F0E0FB48F26C1268
:102FA80066996798FFF7B5FE82460EAE3222002179
:102FB800304601F0FCFD0DF16C094FF496720021CA
:102FC800484601F0F4FD164A1649304601F062FE03
:102FD80001A9304601F0C1FE51464846FFF7F6FE0A
:102FE8004946304601F0B9FE0F49304601F0B5FEBA
:102FF8003046FFF72BFF01356DB2B3E70B48FFF7FB
:1030080025FFC0E7906A00000024F4000000E03FBC
:10301800980000201060000074010020FD05009E4B
:10302800346000004060000044600000146000004C
:1030380030B5E5B0044600255995322229464CA8FA
:1030480001F0B5FD4FF49672294601A801F0AFFDD5
:10305800042362AA1C492046FEF7CCF910B11B488C
:10306800FFF7F4FE5CAC224660A962A8FFF726FED3
:1030780002225AA9204602F071FB0024002C12DD1E
:1030880001AD59992846FFF7A1FE4CAC29462046C8
:1030980001F063FE0E49204601F05FFE2046FFF76F
:1030A800D5FE65B030BD631C64AA02EB840502EB53
:1030B800830353F8281C5A98FFF750FE45F82C0C48
:1030C800013464B2DAE700BFC4020020486000009F
:1030D8004460000030B5E3B004460D4632220021BA
:1030E8004BA801F064FD4FF496720021684601F088
:1030F8005EFD042360AA29462046FEF77BF910BB33
:103108005AAC22465EA960A8FFF7D8FD022258A94A
:10311800204602F023FB48F26C1258995998FFF7A1
:10312800F8FD01466846FFF751FE4BAC694620465C
:1031380001F013FE0649204601F00FFE2046FFF776
:1031480085FE63B030BD0348FFF780FED8E700BFB7
:1031580044600000146000002DE9F04FADF25C5DA2
:10316800804689461746082A0CD0102A17D0202AEC
:1031780002D14FF4707A07E04948FFF767FE4FF035
:10318800000A01E04FF0300A56AC4649204601F0EB
:10319800F3FD204601F0F8FD054600263AE04FF021
:1031A800E00AF1E7404800EBC600FFF773FC042390
:1031B80005AA49464046FEF71DF900284FD10DF1F2
:1031C8001C0B5A4601A905A8FFF778FD03AC02229B
:1031D8002146584602F0C2FA48F26C120399049844
:1031E800FFF797FD01460BAC2046FFF7EFFD2F498F
:1031F800204601F0B2FD204601F0C6FD04462B181A
:10320800B3F5806F2FDA0BA956A8284401F0B4FD56
:1032180025440136B24532D94FF4967200210BA8E5
:1032280001F0C5FC00230793089309930A930193BF
:1032380002930393049305930693082FB2D0102F9B
:1032480005D0202F07D01A4800EBC600ADE7194873
:1032580000EBC600A9E7164800EBC600A5E716482C
:10326800FFF7F4FDABE756AD2846FFF7EFFD4FF447
:1032780080620021284601F09AFC0025C3E7002D52
:103288000ADC0E48FFF7E2FD0D4B1868FFF708FA55
:103298000DF25C5DBDE8F08F56A8FFF7D7FDF0E7AB
:1032A800606000007C60000008900000AC600000D6
:1032B800086B0000088900008C600000B060000006
:1032C800B80900202DE9F047ADF5AB6D8046894679
:1032D8001746082A0CD0102A17D0202A02D14FF4FA
:1032E800707A07E04C48FFF7B1FD4FF0000A01E0A3
:1032F8004FF0300A56AC4949204601F03DFD2046C2
:1033080001F042FD0546002637E04FF0E00AF1E7FC
:10331800434800EBC600FFF7BDFB042305AA494656
:103328004046FEF767F810B13E48FFF78FFD07AC3F
:10333800224601A905A8FFF7C1FC022203A92046DD
:1033480002F00CFA0024002C3DDD0BAC009920465D
:10335800FFF73CFD3449204601F0FFFC204601F010
:1033680013FD04462B18B3F5806F38DA0BA956A85D
:10337800284401F001FD25440136B2453BD94FF4FC
:10338800967200210BA801F012FC00230793089302
:1033980009930A9301930293039304930593069365
:1033A8000093082FB4D0102F05D0202F07D01F4826
:1033B80000EBC600AFE71E4800EBC600ABE71B48B2
:1033C80000EBC600A7E7621C03AB53F82210039872
:1033D800FFF7C4FC4DF82400013464B2B3E756ADDE
:1033E8002846FFF733FD4FF480620021284601F09C
:1033F800DEFB0025BAE7002D0ADC0E48FFF726FDA4
:103408000D4B1868FFF74CF90DF5AB6DBDE8F0876B
:1034180056A8FFF71BFDF0E7606000007C60000025
:10342800089000008C600000AC600000086B000091
:1034380008890000B0600000B809002000B583B01A
:103448003C48FDF7D7FE002847D14FF47A71394B35
:103458001868FDF7C0FE002843D148F2E801354B53
:103468001868FDF7BFFE00283FD1324B1868FEF7F9
:1034780021FA00283DD12F4B1868FEF759FA002889
:103488003BD12C4B1868FEF71FFA002839D1294B7D
:103498001868FEF785FA002837D16A462649254B71
:1034A8001868FDF7F1FD002833D1009A2349214B14
:1034B8001868FDF7D9FD00282FD101AA20491D4B16
:1034C8001868FDF7E1FD60BB019A1E49194B1868A1
:1034D800FDF7CAFD48BB03B000BD1B4800F028FC3F
:1034E800B3E71A4800F024FCB7E7194800F020FCBD
:1034F800BBE7184800F01CFCBDE71748FFF7A6FC1F
:10350800BFE71648FFF7A2FCC1E7154800F010FC1A
:10351800C3E7144800F00CFCC7E7134800F008FCA8
:10352800CBE7124800F004FCCEE7114800F000FC9D
:10353800D1E700BFB40900200C010840040108408D
:103548001001084008010840B4600000D060000085
:10355800F860000020610000486100006061000020
:1035680074610000A8610000E861000028620000A2
:1035780068620000F0B5FBB0002220217048FEF719
:1035880019FD002860D1012220216D48FEF7F2FCC8
:1035980000285DD1012220216948FEF7FBFC0028A4
:1035A8005AD100224FF400616548FEF703FD002858
:1035B80056D101224FF400616148FEF7DBFC002878
:1035C80052D101224FF400615D48FEF7E3FC002868
:1035D8004ED100224FF480515A48FEF7EBFC0028E8
:1035E8004AD101224FF480515648FEF7C3FC002807
:1035F80046D101224FF480515248FEF7CBFC0028F7
:1036080042D1002240215048FEF7D4FC00283FD187
:10361800012240214C48FEF7ADFC00283CD1012294
:1036280040214948FEF7B6FC002839D10EAC4FF4CA
:10363800C8720021204601F0BAFA444A444920469B
:1036480001F028FB002494E04248FFF7FFFB9AE7CB
:103658004148FFF7FBFB9DE73E48FFF7F7FBA0E774
:103668003C48FFF7F3FBA4E73C48FFF7EFFBA8E76C
:103678003848FFF7EBFBACE73648FFF7E7FBB0E766
:103688003748FFF7E3FBB4E73248FFF7DFFBB8E75B
:103698003048FFF7DBFBBBE73248FFF7D7FBBEE755
:1036A8002C48FFF7D3FBC1E72F48FFF7CFFB93E088
:1036B80001AF33462A462D49384601F0EBFA394620
:1036C8000EA801F04AFB8FE02248FFF7BFFB93E00A
:1036D8002548FFF7BBFB9AE001AF33462A4623494A
:1036E800384601F0D7FA39460EA801F036FB96E0C5
:1036F8001848FFF7ABFB9AE01B48FFF7A7FBA1E0D0
:1037080001AF33462A461949384601F0C3FA39460B
:103718000EA801F022FB9DE00E48FFF797FBA1E001
:103728001148FFF793FBA8E001AF33462A460F493B
:10373800384601F0AFFA39460EA801F00EFBA4E0B6
:1037480040000240C0000240800002407063000058
:1037580040600000A8620000D0620000F86200002B
:1037680020630000486300008C630000B063000021
:103778000134042C00F395803222002101A801F0C5
:1037880016FA4A4B03EBC40393E803007AAB03E948
:10379800030076AA464B03EBC40393E8030082E8D0
:1037A800030074AA434B03EBC40393E8030082E8C5
:1037B800030072AA404B03EBC40393E8030082E8BA
:1037C8000300789DBDF8E461002231462846FEF7E3
:1037D800F1FB00287FF468AF012231462846FEF746
:1037E800C9FB00287FF464AF012231462846FEF762
:1037F800D1FB00287FF468AF769DBDF8DC6100221C
:1038080031462846FEF7D6FB00287FF461AF012237
:1038180031462846FEF7AEFB00287FF45DAF012253
:1038280031462846FEF7B6FB00287FF461AF749D49
:10383800BDF8D461002231462846FEF7BBFB0028BC
:103848007FF45AAF012231462846FEF793FB002841
:103858007FF456AF012231462846FEF79BFB00282D
:103868007FF45AAF729DBDF8CC61002231462846DC
:10387800FEF7A0FB00287FF453AF0122314628460B
:10388800FEF778FB00287FF44FAF01223146284627
:10389800FEF780FB00283FF46BAF0848FFF7D6FA25
:1038A80066E70EA8FFF7D2FA7BB0F0BD4C01002006
:1038B80024010020FC000020D4000020A8620000A1
:1038C80010B582B0FEF738FB002830D1FFF752FE62
:1038D8002548FDF78FFC00282DD1234B1868FDF7EC
:1038E800E9FF60BB204B1868FEF75AF858BB1E4B1F
:1038F8001868FEF7C5F850BB1B4B1868FEF75AF856
:1039080048BB1A4B1A4ADA601A4A1A61164C012146
:103918002068FDF75DFC04236A4617492068FDF717
:1039280069FDE0B91548FFF791FA02B010BD1448D7
:10393800FFF78CFACAE71348FFF788FACDE7124871
:10394800FFF784FACEE71148FFF780FACFE710486F
:10395800FFF77CFAD0E70F48FFF778FAD1E70E486F
:10396800FFF774FADEE700BFB40900201802002050
:10397800999901988BEF009E74020020486400001A
:10398800BC630000CC630000DC630000EC63000053
:10399800086400001C6400003864000030B585B07D
:1039A800FEF7CAFA002864D1FFF7E4FD4B48FDF79B
:1039B80021FC002861D14FF47A71484B1868FDF753
:1039C8000AFC00285DD148F2E801444B1868FDF76D
:1039D80009FC002859D1414B1868FDF76BFF0028F6
:1039E80057D13E4B1868FDF7A3FF002855D13B4B34
:1039F8001868FDF769FF002853D1384B1868FDF7A0
:103A0800CFFF002851D102AA3549344B1868FDF779
:103A18003BFB00284DD1029A3249304B1868FDF71C
:103A280023FB002849D103AA2F492C4B1868FDF71E
:103A38002BFB002845D1039A2C49284B1868FDF721
:103A480013FB002841D12A4C2A4BE3602A4B2361FF
:103A5800224D01212868FDF7BBFB6A46002300932D
:103A68000193042321462868FDF7C4FC88BB05B0F0
:103A780030BD2248FFF7EAF996E72148FFF7E6F953
:103A880099E72048FFF7E2F99DE71F48FFF7DEF9BD
:103A9800A1E71E48FFF7DAF9A3E71D48FFF7D6F9B3
:103AA800A5E71C48FFF7D2F9A7E71B48FFF7CEF9AF
:103AB800A9E71A48FFF7CAF9ADE71948FFF7C6F9A9
:103AC800B1E71848FFF7C2F9B5E71748FFF7BEF99D
:103AD800B9E71648FFF7BAF9C9E700BFB4090020EB
:103AE8000C01084004010840100108400801084082
:103AF8001802002099990198FD05009EBC630000FA
:103B08005C6400006464000074640000DC6300000E
:103B18004861000060610000EC63000084640000FC
:103B2800AC640000D4640000FC6400002865000058
:103B380070B582B000F054FBFDF70AF8614AD3680B
:103B480023F4E0631B041B0C43F0BF6343F401330D
:103B5800D36001210920FDF7BBF8E0B90121042059
:103B6800FDF7B6F8D8B900F0FBF8FEF7EBFF00F068
:103B7800D3F8FFF77DF9B0B95348FFF767F9534811
:103B8800FFF764F95248FFF761F95248FFF75EF909
:103B98000026344641E0504800F0CAF8DEE74E48B7
:103BA80000F0C6F8DFE74D4800F0C2F8E4E76A78AD
:103BB8000D2A41D14A48FFF749F9FFF7EFFE0126E0
:103BC800344626E0474A52780D2A37D14648FFF74F
:103BD8003DF9FFF733FC012602241AE0414A5278E6
:103BE8000D2A2DD14148FFF731F9FFF7D7FE0126FD
:103BF80003240EE03B4A52780D2A23D13C48FFF7B4
:103C080025F9FFF75DFE0126042402E03948FFF795
:103C18001DF9394B1868FEF743FD0EBB0223ADF8BA
:103C28000630304D0DF106022946334B1868FEF771
:103C380027FD2B78612BBAD0622BC3D0632BCDD054
:103C4800642BD7D0652BE1D1264B5B780D2BDDD1CA
:103C58002A48FFF7FBF8FFF733FE01260524D8E7CB
:103C68002748FFF7F3F804E02649274B1868FFF7C1
:103C780031FA012CF8D0022C09D0032C0DD0042CD9
:103C880012D0052C17D02148FFF7E0F8F1E72049BA
:103C98001D4B1868FFF736F9EBE7082219491A4B4C
:103CA8001868FFF759FAE4E710221A49164B186802
:103CB800FFF708FBDDE71749134B1868FFF7B8F95A
:103CC800D7E700BF00ED00E07865000090650000D0
:103CD8009C65000004660000386500005865000017
:103CE8001C660000200A0020406600006466000090
:103CF80078660000CC660000B8090020AC660000B9
:103D080030670000D0010020B40900204C67000093
:103D180074010020C4020020024B4FF420421A60B4
:103D2800002070470000024008B50020FCF778FD2D
:103D380000B585B0084B93E803000290ADF80C106D
:103D4800090C8DF80E10054B1B68ADF804301B0CE0
:103D58008DF80630FFF7E8FFC8670000D06700005D
:103D680000B583B001A90020FEF722FE50B9014634
:103D78000198FEF7D5FD40B90198FEF7BFFD38B9A7
:103D880003B000BD0448FFF7D3FF0448FFF7D0FF96
:103D98000348FFF7CDFF00BFD46700000C680000A0
:103DA800286800000A4B10B50446186818B18369E2
:103DB8000BB900F067FE132C07D8064850F83430CA
:103DC800013302D000EBC40010BD0020FCE700BFA7
:103DD80004030020B00C0020F8B5431C054609D1A7
:103DE80000F00AFE13240646002720463946ABBEDB
:103DF800044634602846F8BDF8B5054600F0FCFDD9
:103E080013240646002720463946ABBE04463460D4
:103E18002846F8BD30B585B0CDE9010103920624E6
:103E280001AD20462946ABBE04462046FFF7D4FF25
:103E380005B030BD70B50E461546FFF7B3FF044612
:103E480030B900F0D9FD092303604FF0FF3070BD91
:103E58002A4631460068FFF7DDFF431C1FBF636831
:103E6800281A1B186360F2E7F7B50C461646FFF7E9
:103E780099FF054640B900F0BFFD092303604FF0E4
:103E8800FF34204603B0F0BD022E03D900F0B4FD84
:103E98001623F3E7012E12D14368E418F6D42B68F1
:103EA8000A26CDE900346F4630463946ABBE064691
:103EB8003046FFF791FF0028E1DB6C60E1E7022E56
:103EC800EDD1036802AF47F8083D0C263046394665
:103ED800ABBE06463046FFF77FFF431CCFD00444F5
:103EE800DDE7FFF7C1BF30B585B0CDE90101039229
:103EF800052401AD20462946ABBE04462046FFF7FF
:103F08006BFF05B030BD70B50E461546FFF74AFF8A
:103F1800044630B900F070FD092303604FF0FF300C
:103F280070BD2A4631460068FFF7DDFF021EF5DB4B
:103F38006368A81A0344AA426360F1D1BDE87040DF
:103F48000020FFF759BF37B502AD45F8040D02242C
:103F580020462946ABBE04462046FFF73DFF03B086
:103F680030BD000038B50546FFF71CFF044630B9E0
:103F780000F042FD092303604FF0FF3038BD013DDA
:103F8800012D09D8094B9A681B699A4204D14FF050
:103F9800FF3303600020F1E72068FFF7D4FF002813
:103FA800ECD14FF0FF332360E8E700BFB00C0020EE
:103FB80070B50C46FFF7F6FE064630B900F01CFD5A
:103FC800092303604FF0FF3070BD63680C2543F48C
:103FD800005363604FF48063636428463146ABBE88
:103FE80005462846FFF7F8FE431C1CBF2061002049
:103FF800EAE738B50D46044658220021284600F065
:10400800D6FD2046002100F011F8431C04460BD0D1
:104018006B68294643F401436B60FFF7C9FF054607
:104028002046FFF79FFF2C46204638BD2B4B2DE935
:10403800F04782460E460025984696B053F835401C
:10404800EF00611C36D00135142DF7D100F0D4FCF7
:1040580018234FF0FF3403603CE040F20163C6F3DD
:104068000044B20748BF44F002041E4218BF44F09F
:104078000404330748BF24F00404504648BF44F002
:104088000804CDF800A000F07FFECDE9014001242E
:1040980020464946ABBE0446002C06DB00234744B5
:1040A80048F835407B602C4614E02046FFF7A4FE14
:1040B80004460FE006F42063B3F5206FE946CCD13F
:1040C80049465046FFF795FF0130C6D000F094FCF2
:1040D80011230360204616B0BDE8F087B00C00201D
:1040E8002DE9F74307468846294800211546FFF77A
:1040F8009DFF04462A460021384600F058FD631CFF
:1041080015D02046FFF74EFE0C268146304649461C
:10411800ABBE06463046FFF75FFE032802DD0338D4
:10412800A84208DC2046FFF71DFF4FF0FF34204669
:1041380003B0BDE8F083042220460DEB0201FFF72F
:1041480079FE0328EEDD9DF80430532BEAD19DF863
:104158000530482BE6D19DF80630462BE2D19DF874
:104168000730422BDED1012241462046FFF77CFE74
:104178000028D7DB2A4639462046FFF75BFE05466E
:104188002046FFF7EFFE2846FFF726FE0446CEE757
:104198008891000037B500210122094D094C01A87A
:1041A80029602260FFF79CFF002807DD9DF8043096
:1041B80003F0010203F002032A60236003B030BD5C
:1041C800FC0200200003002010B5044C2268002ADD
:1041D80001DAFFF7DFFF206810BD00BF00030020F1
:1041E8002DE9F04F03230024DFF8AC9085B0CDF81B
:1041F80004900DF1040803930125029428464146D2
:10420800ABBE0546204A23464FF0FF3114461F4EE9
:10421800356042F833100133142BFAD1FFF7D4FF7D
:104228001B4DD0B14FF0030A0423CDF804900127A9
:10423800CDF80CA0029338464146ABBE8346154BD9
:10424800CDF80490C3F800B00823CDF80CA0029371
:1042580038464146ABBE07462F602B68013302BF84
:104268000C4B1B682B603368002623606660FFF7E1
:10427800ABFF30B1074B1B68C4E902362B68C4E9B1
:10428800043605B0BDE8F08FB00C0020A80C002063
:10429800A40C0020AC0C00209E91000081F000418D
:1042A80002E000BF83F0004330B54FEA41044FEA13
:1042B800430594EA050F08BF90EA020F1FBF54EAAE
:1042C800000C55EA020C7FEA645C7FEA655C00F04A
:1042D800E2804FEA5454D4EB5555B8BF6D420CDD1B
:1042E8002C4480EA020281EA030382EA000083EA9E
:1042F800010180EA020281EA0303362D88BF30BD3E
:1043080011F0004F4FEA01314FF4801C4CEA113193
:1043180002D0404261EB410113F0004F4FEA0333F2
:104328004CEA133302D0524263EB430394EA050F7D
:1043380000F0A780A4F10104D5F1200E0DDB02FAEC
:104348000EFC22FA05F2801841F1000103FA0EF280
:10435800801843FA05F359410EE0A5F120050EF146
:10436800200E012A03FA0EFC28BF4CF0020C43FA77
:1043780005F3C01851EBE37101F0004507D54FF084
:10438800000EDCF1000C7EEB00006EEB0101B1F5D4
:10439800801F1BD3B1F5001F0CD349085FEA30001A
:1043A8004FEA3C0C04F101044FEA445212F5800F25
:1043B80080F09A80BCF1004F08BF5FEA500C50F1C2
:1043C800000041EB045141EA050130BD5FEA4C0CA5
:1043D800404141EB010111F4801FA4F10104E9D12E
:1043E80091F0000F04BF01460020B1FA81F308BF25
:1043F8002033A3F10B03B3F120020CDA0C3208DDF1
:1044080002F1140CC2F10C0201FA0CF021FA02F1CB
:104418000CE002F11402D8BFC2F1200C01FA02F13B
:1044280020FA0CFCDCBF41EA0C019040E41AA2BF60
:1044380001EB0451294330BD6FEA04041F3C1CDA28
:104448000C340EDC04F11404C4F1200220FA04F048
:1044580001FA02F340EA030021FA04F345EA0301F2
:1044680030BDC4F10C04C4F1200220FA02F001FAB4
:1044780004F340EA0300294630BD21FA04F0294636
:1044880030BD94F0000F83F4801306BF81F48011CF
:104498000134013D4EE77FEA645C18BF7FEA655C42
:1044A80029D094EA050F08BF90EA020F05D054EA14
:1044B800000C04BF1946104630BD91EA030F1EBF19
:1044C8000021002030BD5FEA545C05D1400049411D
:1044D80028BF41F0004130BD14F580043CBF01F510
:1044E800801130BD01F0004545F0FE4141F47001F6
:1044F8004FF0000030BD7FEA645C1ABF19461046D1
:104508007FEA655C1CBF0B46024650EA013406BFD1
:1045180052EA033591EA030F41F4002130BD00BF90
:1045280090F0000F04BF0021704730B54FF480644D
:1045380004F132044FF000054FF0000150E700BFCE
:1045480090F0000F04BF0021704730B54FF480642D
:1045580004F1320410F0004548BF40424FF000011A
:104568003EE700BF42004FEAE2014FEA31014FEA5D
:1045780002701FBF12F07F4393F07F4F81F06051AC
:10458800704732F07F4208BF704793F07F4F04BFF7
:1045980041F40021704730B54FF4607401F00045D4
:1045A80021F000411CE700BF50EA010208BF704734
:1045B80030B54FF000050AE050EA010208BF704725
:1045C80030B511F0004502D5404261EB41014FF48E
:1045D800806404F132045FEA915C3FF4D8AE4FF096
:1045E80003025FEADC0C18BF03325FEADC0C18BF79
:1045F800033202EBDC02C2F1200300FA03FC20FACA
:1046080002F001FA03FE40EA0E0021FA02F1144416
:10461800BDE600BF4A0011D212F5001211D20DD525
:104628006FF47873B3EB62520ED44FEAC12343F0B0
:10463800004343EA505323FA02F070474FF000005A
:10464800704750EA013002D14FF0FF3070474FF009
:10465800000070477BB972B90029BEBF00204FF037
:10466800004106E008BF00281CBF6FF000414FF072
:10467800FF3000F0BFB9ADF1080C6DE904CE002998
:1046880009DB002B1ADB00F04DF8DDF804E0DDE96A
:10469800022304B07047404261EB4101002B1BDB51
:1046A80000F040F8DDF804E0DDE9022304B0404200
:1046B80061EB4101524263EB43037047524263EBA3
:1046C800430300F02FF8DDF804E0DDE9022304B02D
:1046D800404261EB41017047524263EB430300F0F3
:1046E80021F8DDF804E0DDE9022304B0524263EB6F
:1046F8004303704753B94AB9002908BF00281CBFB3
:104708004FF0FF314FF0FF3000F074B9ADF1080CF5
:104718006DE904CE00F006F8DDF804E0DDE90223D7
:1047280004B070472DE9F0478C460446089E002BDC
:104738004BD18A42154667D9B2FA82F24AB1C2F120
:10474800200701FA02F320FA07F7954047EA030C1D
:1047580094404FEA154EBCFBFEF71FFA85F80EFB96
:1047680017C307FB08F9210C41EA0343994509D906
:10477800EB1807F1FF3180F01C81994540F219814F
:10478800023F2B44A3EB0903B3FBFEF00EFB1033EF
:1047980000FB08F1A4B244EA0344A14209D92C1948
:1047A80000F1FF3380F00781A14240F20481023812
:1047B8002C4440EA07400027641A1EB10023D44065
:1047C800C6E900433946BDE8F0878B4209D9002E77
:1047D80000F0EC800027C6E9000138463946BDE8FC
:1047E800F087B3FA83F7002F48D18B4202D3824275
:1047F80000F2FB80841A61EB030301209C46002E23
:10480800E0D0C6E9004CDDE702B9FFDEB2FA82F279
:10481800002A40F08F800127491B4FEA15481FFAEC
:1048280085F9B1FBF8FE08FB1E1109FB0EF04FEAF3
:10483800144C4CEA0143984207D9EB180EF1FF31AA
:1048480002D2984200F2CD808E461B1AB3FBF8F0D4
:1048580008FB103309FB00F9A4B244EA0344A1455C
:1048680007D92C1900F1FF3302D2A14500F2B68016
:104878001846A4EB090440EA0E409EE7C7F120055C
:10488800BB4022FA05FC4CEA030C21FA05F44FEA76
:104898001C4EB4FBFEF91FFA8CF80EFB194420FAE3
:1048A80005F3B94009FB08FA19430B0C43EA044421
:1048B800A24502FA07F200FA07F30BD91CEB04042D
:1048C80009F1FF3080F08880A24540F28580A9F187
:1048D80002096444A4EB0A04B4FBFEF00EFB104486
:1048E80000FB08FA89B241EA0444A24508D91CEB46
:1048F800040400F1FF316BD2A24569D9023864443F
:1049080040EA0940A0FB0289A4EB0A044C45414651
:10491800CE4654D351D0002E69D05A1A64EB0E04F7
:1049280004FA05F522FA07F3FC401D43C6E90054D2
:10493800002747E79540C2F1200321FA03F04FEA28
:104948001548B0FBF8F71FFA85F908FB170024FA99
:1049580003F3914007FB09FC0B43190C41EA0041A2
:104968008C4504FA02F407D9691807F1FF3031D2EF
:104978008C452FD9023F2944A1EB0C01B1FBF8F07B
:1049880008FB101C00FB09FE99B241EA0C418E4558
:1049980007D9691800F1FF3318D28E4516D90238A5
:1049A8002944A1EB0E0140EA07473AE7374630466B
:1049B80008E70F46E6E61846FBE64345ABD2B8EBF8
:1049C800020169EB0C0201389646A4E71846E8E7AD
:1049D800084695E70746CFE781467BE702382C442F
:1049E80047E7AEF1020E2B442FE7384607E7374674
:1049F800E8E600BF704700BF014B1868704700BF6A
:104A080004030020002310B50446C0E90033836086
:104A180081814366C281C0E9043383611946082253
:104A28005C3000F0C4F8054B24626362044BA36257
:104A3800044BE362044B236310BD00BFDD4C000050
:104A4800FF4C0000374D00005B4D0000014900F0AD
:104A580085B800BF654F000070B568254A1E5543EC
:104A68000E4605F1740100F0ABF8044640B1002190
:104A7800C0E900160C30A06005F1680200F097F854
:104A8800204670BD836910B5044633BBC0E91233B4
:104A98000365124B124A1B688262984204BF0123C5
:104AA800836100F01FF86060204600F01BF8A060EA
:104AB800204600F017F80022E06004216068FFF744
:104AC800A1FF01220921A068FFF79CFF0222122101
:104AD800E068FFF797FF0123A36110BD389200003B
:104AE800554A0000F8B51B4B07461E68B36913B951
:104AF8003046FFF7C7FF4836D6E90134013B03D5F6
:104B0800336833B13668F7E7B4F90C506DB16834DF
:104B1800F4E704213846FFF79FFF30600028F1D101
:104B28000C2304463B602046F8BD0B4B6566C4E980
:104B38000055A560C4E90335C4E90555082229468E
:104B480004F15C0000F033F8C4E90D55C4E91255CE
:104B5800E9E700BF389200000100FFFF2DE9F843A4
:104B680080468946002600F1480414B93046BDE85D
:104B7800F883D4E90175013F01D52468F5E7AB89CD
:104B8800012B07D9B5F90E30013303D02946404629
:104B9800C84706436835EEE710B5431E0A449142FC
:104BA80000D110BD11F8014B03F8014FF7E7034698
:104BB8000244934200D1704703F8011BF9E7000053
:104BC80070B5CD1C25F0030508350C2D38BF0C2514
:104BD800002D064601DBA94203D90C2333600020CF
:104BE80070BD00F0F7F9214A1468214691B9204CAC
:104BF80023681BB9304600F03DF82060294630464E
:104C080000F038F8431C24D10C233046336000F000
:104C1800E2F9E4E70B685B1B18D40B2B0FD90B6088
:104C2800CC18CD50304600F0D6F904F10B00231D06
:104C380020F00700C31AD3D05A42E250D0E74B689D
:104C48008C4216BF636013600C46EBE70C4649685C
:104C5800CCE7C41C24F00304A04205D0211A304636
:104C680000F008F80130CFD02560DBE7500D0020B8
:104C7800540D002038B50023054C0546084623602E
:104C8800FBF7D0FD431C02D1236803B12B6038BD6C
:104C98000C0400200EB46FF0004100B59CB01DABB1
:104CA80002900690079104910848094953F8042B8B
:104CB8000591006802A9019300F034FA0022029BD2
:104CC8001A701CB05DF804EB03B0704704030020B1
:104CD8000802FFFF10B50C46B1F90E1000F0A2FC57
:104CE8000028ABBF636DA3891B1823F48053ACBFA6
:104CF8006365A38110BD2DE9F0411F468B890546E8
:104D0800DB050C46164605D502230022B1F90E1024
:104D180000F04EF9A389324623F48053A381B4F9F5
:104D28000E103B462846BDE8F04100F06FB810B5BC
:104D38000C46B1F90E1000F03BF9431CA38915BFCE
:104D4800606523F4805343F48053A38118BFA38183
:104D580010BDB1F90E1000F06BB8034610B51A7803
:104D68005C1C3AB9013B11F8012B03F8012F002A0A
:104D7800F9D110BD2346F2E7034611F8012B03F8D9
:104D8800012B002AF9D17047034613F8012B002A9A
:104D9800FBD1181A0138704730B5141E05469BB070
:104DA800184605DA8B234FF0FF302B601BB030BD5F
:104DB8004FF40273ADF80C300CBF234604F1FF33F7
:104DC800029305934FF6FF7300910491ADF80E30EE
:104DD80002461E9B6946284600F0A4F9431CBCBF46
:104DE8008B232B60002CE1D00022009B1A70DDE79A
:104DF80007B5009313460A46014603480068FFF7C3
:104E0800CBFF03B05DF804FB0403002038B505466A
:104E1800084611460022054C22601A46FFF773F82F
:104E2800431C02D1236803B12B6038BD0C04002059
:104E380038B50023054C054608462360FFF792F86D
:104E4800431C02D1236803B12B6038BD0C04002039
:104E58008A892DE9F041054610070C4658D44B685D
:104E6800002B05DC0B6C002B02DC0020BDE8F08178
:104E7800E66A002EF9D0002312F480522F68216AC6
:104E88002B6032D0606DA3895A0705D56368C01AB4
:104E9800636B0BB1236CC01A00230246E66A216AD1
:104EA8002846B047431CA38906D129681D2948D83C
:104EB800294ACA40D60744D5002262602269D9042B
:104EC800226004D5421C01D12B6803B96065616B6F
:104ED8002F600029C9D004F14403994202D0284622
:104EE80000F07AF800206063C0E701232846B04745
:104EF800411CC8D12B68002BC5D01D2B01D0162B07
:104F080001D12F60B1E7A38943F04003A381ADE746
:104F18000F69002FA9D0930718BF00230E6808BF98
:104F28004B69A6EB07080F608B60B8F1000F9CDD9A
:104F380043463A46216A2846A66AB047002806DC56
:104F4800A38943F04003A3814FF0FF308EE7074465
:104F5800A8EB0008E9E700BF0100402038B50B695D
:104F680005460C46DBB118B183690BB9FFF78AFD1A
:104F78000C4B9C4209D16C68B4F90C307BB12146CA
:104F88002846BDE83840FFF763BF074B9C4201D174
:104F9800AC68F1E7054B9C4208BFEC68ECE70020E1
:104FA80038BD00BFF891000018920000D8910000A9
:104FB80038B50546084611460022054C22601A46B7
:104FC800FEF78FFF431C02D1236803B12B6038BD65
:104FD8000C0400207047704738B50546002943D0B7
:104FE80051F8043C0C1F002BB8BFE418FFF7F2FF80
:104FF8001E4A1368104633B9636014602846BDE83A
:105008003840FFF7E8BFA3420BD9216862189342E2
:1050180001BF1A685B685218226063600460EDE79C
:1050280013465A680AB1A242FAD919685818A04218
:105038000BD120680144581882421960DED11068EB
:105048005268014419605A60D8E702D90C232B60D2
:10505800D4E7206821188A4201BF116852680918EC
:10506800216062605C60C9E738BD00BF500D002058
:105078002DE9F0478E6882469E420C469046994636
:1050880037D88A8912F4906F31D0022325680969CC
:105098006F1A656905EB450595FBF3F509F1010301
:1050A8003B449D4238BF1D46530530D52946FFF77E
:1050B80087FD064650B90C234FF0FF30CAF8003080
:1050C800A38943F04003A381BDE8F0873A462169EC
:1050D800FFF762FDA38923F4906343F08003A38163
:1050E80026613E4426604E466561ED1BA5604E452F
:1050F80000D94E4632464146206800F0B3FAA3680C
:1051080000209B1BA36023681E442660DCE72A4618
:1051180000F0C1FA06460028E2D121695046FFF79F
:105128005BFFC8E72DE9F04F1D468B899DB01F0630
:1051380080460C4616460FD50B696BB94021FFF720
:105148003FFD2060206128B90C23C8F800304FF0DB
:10515800FF30C8E0402363610023099320238DF8C2
:10516800293030234FF0010B8DF82A30039537464C
:105178003D4615F8013B0BB1252B3ED1B7EB060A8E
:105188000BD05346324621464046FFF771FF0130A7
:1051980000F0A480099B534409933B78002B00F04E
:1051A8009D8000234FF0FF32CDE905230493079338
:1051B8008DF853301A932F46052217F8011B5048D3
:1051C80000F042FA049BD0B9D90644BF20228DF8DA
:1051D80053201A0744BF2B228DF853202A782A2AF5
:1051E80015D02F4600200A25079A394611F8013BA9
:1051F800303B092B4DD9B8B10FE02F46B8E7404AEC
:105208003D46801A0BFA00F018430490D3E7039A3E
:10521800111D12680391002A01DB079204E0524233
:1052280043F00203079204933B782E2B0CD17B7832
:105238002A2B33D1039B02371A1D1B680392002BBC
:10524800B8BF4FF0FF3305932E4D03223978284617
:1052580000F0FAF938B14023401B03FA00F0049B30
:105268000137034304933978062227487E1C8DF8BA
:10527800281000F0E9F9002838D0244B13BB039B11
:10528800073323F0070308330393099B4B4409931F
:105298006DE705FB023201200F46A6E700230A2529
:1052A800194601370593384610F8012B303A092A78
:1052B80003D9002BC8D00591C6E705FB01210123BE
:1052C8000746F0E703AB00932246114B04A940467A
:1052D800AFF30080B0F1FF3F8146D6D1A3895B06CA
:1052E8003FF535AF09981DB0BDE8F08F03AB0093CB
:1052F8002246074B04A9404600F082F8EAE700BFBF
:10530800A2910000A8910000AC91000000000000EC
:10531800795000002DE9F04791461F468A680B69CD
:1053280006469342B8BF1346C9F8003091F84320A7
:105338000C46DDF8208012B10133C9F8003023682B
:10534800990642BFD9F800300233C9F80030256801
:1053580015F0060507D104F1190AE368D9F8002009
:105368009B1AAB4229DC94F843302268003318BFFB
:10537800012392062ED404F1430239463046C04731
:10538800013021D02368E56803F00603042B18BF19
:105398000025D9F800204FF0000908BFAD1AA3680E
:1053A800226908BF25EAE5759342C4BF9B1AED1828
:1053B8001A344D451AD1002008E0012352463946D7
:1053C8003046C047013003D14FF0FF30BDE8F087C9
:1053D8000135C2E73020E11881F843005A1C94F8DF
:1053E80045102244023382F84310C4E701232246C1
:1053F80039463046C0470130E6D009F10109D8E7FF
:105408002DE9F04301F1430C0C46097E85B06E2965
:105418001746064698460C9A00F0B38022D86329AE
:1054280036D00AD8002900F0B980582900F08380C6
:1054380004F1420584F8421032E0642901D0692958
:10544800F6D120681368050603F104012AD51B6804
:105458001160002B03DA2D225B4284F843206F4849
:105468000A2239E0732900F09D8008D86F2920D0DE
:105478007029DDD1236843F02003236003E07529F8
:1054880017D07829D4D17823654884F8453055E079
:10549800136804F14205191D1B68116084F8423035
:1054A80001238CE01B6810F0400F116018BF1BB27D
:1054B800CFE713682568181D1060280601D51B68FA
:1054C80002E06806FBD51B886F2914BF0A22082250
:1054D8005248002184F843106568002DA560C0F289
:1054E8009580216821F004012160002B3DD1002D19
:1054F80040F08E806546082A0BD12368DB0708D563
:10550800236962689A42DEBF302305F8013C05F141
:10551800FF35ACEB05032361CDF800803B4603AAB9
:1055280021463046FFF7F6FE01304DD14FF0FF30EF
:1055380005B0BDE8F083394884F845101368216840
:105548001D1D1B6815600A060BD5CA0744BF41F02C
:10555800200121601BB9226822F02002226010225B
:10556800B7E74D0648BF9BB2EFE76546B3FBF2F1DC
:1055780002FB1133C35C05F8013D0B460029F5D148
:10558800B9E713682568181D6169106028061B684B
:1055980001D5196002E06A06FBD51980002365462B
:1055A8002361B9E71368191D11601D68626800213D
:1055B800284600F049F808B1401B60606368236121
:1055C800002384F84330A7E723692A463946304642
:1055D800C0470130AAD023689B0713D4E068039B17
:1055E8009842B8BF1846A3E701234A4639463046D1
:1055F800C04701309AD00135E368039A9B1AAB4241
:10560800F2DCEBE7002504F11909F5E7002BACD132
:10561800037804F1420584F842306CE7B391000046
:10562800C491000038B50546084611460022054CCD
:1056380022601A46FEF7FEFB431C02D1236803B121
:105648002B6038BD0C04002010B5C9B2024490424A
:10565800034601D1002303E01C7801308C42F6D1C7
:10566800184610BD884210B501EB020307D8421E48
:1056780099420AD011F8014B02F8014FF8E783422A
:10568800F5D98118D21AD34200D110BD13F8014DB3
:1056980001F8014DF7E7F8B5074614460E4621B95B
:1056A800BDE8F8401146FFF78BBA22B9FFF794FC22
:1056B80025462846F8BD00F014F8A0420FD221462E
:1056C8003846FFF77DFA05460028F2D031462246D3
:1056D800FFF762FA31463846FFF77EFCE9E73546C0
:1056E800E7E751F8043C181F002BBCBF0B58C01843
:1056F800704700002DE9F0415FEA920896461FD0F6
:10570800C44600F1080601F1100356F8085C56F883
:10571800044C2A0C270C12042D043F042404BCF169
:10572800010C43F80C2C43F8105C03E9900006F1D7
:10573800080603F11003E8D100EBC80001EB0811DB
:105748001EF0030208D0043930F9023B013A4FEA4F
:10575800034341F8043FF7D1BDE8F0812DE9F04F4C
:10576800930885B08DE805000E46029353D01F4676
:105778000D46BA4600F12004039154F8143C54F83D
:105788001C0C54F8206C54F8182C83FB038980FBFC
:10579800000182FB022386FB06674FEA6902481074
:1057A80054F8049C54F80C8C294600EB670002EB73
:1057B800630754F810BC54F8086C00F049F8291D28
:1057C800384600F045F889FB090188FB08898BFBFE
:1057D8000B2386FB06674FEA69004E1000EB630057
:1057E80005F1080106EB670600F032F805F10C0137
:1057F800304600F02DF8BAF1010A04F1200405F151
:105808001005BAD1009B029A1946039E01EB421378
:10581800009306EB0216019B13F0030515D0009CBC
:10582800083454F8040C54F8082C80FB000182FB5F
:105838000223481000EB6300314600F009F8013DEF
:1058480006F1040604F10804EBD105B0BDE8F08FB9
:10585800002871DD2DE9F04DB0FA80F56E1E16F0C6
:1058680001071ABFAB1E00FA03F400FA06F420463B
:10587800884600F023F94FF0405100F073F94310C7
:1058880030484FF09D41C01A00F06CF900F0BAFAA8
:1058980080FB00AB4FEADA724FEA640E42EA4B0231
:1058A80082FB0E23D20F42EA4302C2F1405280FB30
:1058B8000201C20F42EA4102930083FB03AB4FEAA5
:1058C800DA7040EA4B008EFB0001C20F42EA410247
:1058D800C2F1405283FB0223D20F42EA43029300F3
:1058E80083FB0301C00F40EA41008EFB0001C20F99
:1058F80042EA4102C2F1405283FB0223D00F40EA40
:105908004300800084FB0001C30F43EA41035B00AE
:1059180057B1023D05EBD5756D102B41C8F8003025
:10592800002040B2BDE8F08D76103341C8F8003051
:10593800002040B2BDE8F08D0023FF200B6040B28C
:10594800704700BFDF59375F80F0004002E000BFBA
:1059580081F0004142001FBF5FEA410392EA030F52
:105968007FEA226C7FEA236C6AD04FEA1262D2EB9C
:105978001363C1BFD218414048404140B8BF5B42A1
:10598800192B88BF704710F0004F40F4000020F03A
:105998007F4018BF404211F0004F41F4000121F050
:1059A8007F4118BF494292EA030F3FD0A2F101029A
:1059B80041FA03FC10EB0C00C3F1200301FA03F1D8
:1059C80000F0004302D5494260EB4000B0F5000FFB
:1059D80013D3B0F1807F06D340084FEA310102F1BA
:1059E8000102FE2A51D2B1F1004F40EBC25008BF6C
:1059F80020F0010040EA03007047490040EB000036
:105A080010F4000FA2F10102EDD1B0FA80FCACF164
:105A1800080CB2EB0C0200FA0CF0AABF00EBC25063
:105A280052421843BCBFD0401843704792F0000F51
:105A380081F4000106BF80F400000132013BB5E7A4
:105A48004FEA41037FEA226C18BF7FEA236C21D01A
:105A580092EA030F04D092F0000F08BF084670477F
:105A680090EA010F1CBF0020704712F07F4F04D14D
:105A7800400028BF40F00040704712F100723CBF60
:105A880000F50000704700F0004343F0FE4040F48A
:105A9800000070477FEA226216BF08467FEA236348
:105AA8000146420206BF5FEA412390EA010F40F433
:105AB800800070474FF0000304E000BF10F000437F
:105AC80048BF40425FEA000C08BF704743F0964366
:105AD80001464FF000001CE050EA010208BF704781
:105AE8004FF000030AE000BF50EA010208BF704708
:105AF80011F0004302D5404261EB41015FEA010C1D
:105B080002BF84460146002043F0B64308BFA3F114
:105B18008053A3F50003BCFA8CF2083AA3EBC253F6
:105B280010DB01FA02FC634400FA02FCC2F1200215
:105B3800BCF1004F20FA02F243EB020008BF20F04C
:105B48000100704702F1200201FA02FCC2F12002B2
:105B580050EA4C0021FA02F243EB020008BF20EAA7
:105B6800DC7070474FF0FF0C1CEAD0521EBF1CEAD5
:105B7800D15392EA0C0F93EA0C0F6FD01A4480EAC3
:105B8800010C400218BF5FEA41211ED04FF00063AC
:105B980043EA501043EA5111A0FB01310CF00040D8
:105BA800B1F5000F3EBF490041EAD3715B0040EAFE
:105BB800010062F17F02FD2A1DD8B3F1004F40EBCE
:105BC800C25008BF20F00100704790F0000F0CF0A1
:105BD800004C08BF49024CEA502040EA51207F3A65
:105BE800C2BFD2F1FF0340EAC250704740F4000040
:105BF8004FF00003013A5DDC12F1190FDCBF00F031
:105C080000407047C2F10002410021FA02F1C2F1DE
:105C1800200200FA02FC5FEA310040F1000053EA7A
:105C28004C0308BF20EADC70704792F0000F00F0C8
:105C3800004C02BF400010F4000F013AF9D040EACE
:105C48000C0093F0000F01F0004C02BF490011F462
:105C5800000F013BF9D041EA0C018FE70CEAD15360
:105C680092EA0C0F18BF93EA0C0F0AD030F0004CE0
:105C780018BF31F0004CD8D180EA010000F0004094
:105C8800704790F0000F17BF90F0004F084691F052
:105C9800000F91F0004F14D092EA0C0F01D142028C
:105CA8000FD193EA0C0F03D14B0218BF084608D155
:105CB80080EA010000F0004040F0FE4040F400009F
:105CC800704740F0FE4040F4400070474FF0FF0C32
:105CD8001CEAD0521EBF1CEAD15392EA0C0F93EA79
:105CE8000C0F69D0A2EB030280EA010C49024FEACB
:105CF800402037D04FF0805343EA111143EA101384
:105D08000CF000408B4238BF5B0042F17D024FF43B
:105D1800000C8B4224BF5B1A40EA0C00B3EB510F16
:105D280024BFA3EB510340EA5C00B3EB910F24BFFF
:105D3800A3EB910340EA9C00B3EBD10F24BFA3EB84
:105D4800D10340EADC001B0118BF5FEA1C1CE0D14C
:105D5800FD2A3FF650AF8B4240EBC25008BF20F0FF
:105D6800010070470CF0004C4CEA50207F32C2BF53
:105D7800D2F1FF0340EAC250704740F400004FF0F0
:105D88000003013A37E792F0000F00F0004C02BF21
:105D9800400010F4000F013AF9D040EA0C0093F0EB
:105DA800000F01F0004C02BF490011F4000F013B45
:105DB800F9D041EA0C0195E70CEAD15392EA0C0FAD
:105DC80008D142027FF47DAF93EA0C0F7FF470AFE5
:105DD800084676E793EA0C0F04D14B023FF44CAF28
:105DE80008466EE730F0004C18BF31F0004CCAD1BD
:105DF80030F000427FF45CAF31F000437FF43CAFF9
:105E08005FE700BF4FEA4002B2F1FE4F0FD34FF0F9
:105E18009E03B3EB12620DD94FEA002343F000430F
:105E280010F0004F23FA02F018BF404270474FF0BD
:105E38000000704712F1610F01D1420205D110F044
:105E4800004008BF6FF0004070474FF000007047F7
:105E5800537461636B206672616D653A0A000000D5
:105E6800205230203D2020253038580A00000000FC
:105E7800205231203D2020253038580A00000000EB
:105E8800205232203D2020253038580A00000000DA
:105E9800205233203D2020253038580A00000000C9
:105EA80020523132203D20253038580A00000000A9
:105EB800204C52203D2020253038580A0000000090
:105EC800205043203D2020253038580A000000008B
:105ED80020505352203D20253038580A0000000039
:105EE8004653522F4641523A0A0000002043465377
:105EF80052203D2020253038580A000020484653BB
:105F080052203D2020253038580A000020444653AE
:105F180052203D2020253038580A000020414653A1
:105F280052203D2020253038580A0000204D4D468B
:105F38004152203D20253038580A00002042464171
:105F480052203D2020253038580A00004D697363DF
:105F58000A000000204C522F4558435F52455455C3
